{
  "contractName": "StoreData",
  "abi": [
    {
      "constant": false,
      "inputs": [
        {
          "name": "_id",
          "type": "string"
        },
        {
          "name": "_created",
          "type": "string"
        },
        {
          "name": "_modified",
          "type": "string"
        },
        {
          "name": "_description",
          "type": "string"
        }
      ],
      "name": "setObjects",
      "outputs": [],
      "payable": false,
      "stateMutability": "nonpayable",
      "type": "function"
    },
    {
      "constant": true,
      "inputs": [],
      "name": "getArrayLength",
      "outputs": [
        {
          "name": "",
          "type": "uint256"
        }
      ],
      "payable": false,
      "stateMutability": "view",
      "type": "function"
    },
    {
      "constant": true,
      "inputs": [
        {
          "name": "index",
          "type": "uint256"
        }
      ],
      "name": "getObjects",
      "outputs": [
        {
          "name": "",
          "type": "string"
        },
        {
          "name": "",
          "type": "string"
        },
        {
          "name": "",
          "type": "string"
        },
        {
          "name": "",
          "type": "string"
        }
      ],
      "payable": false,
      "stateMutability": "view",
      "type": "function"
    }
  ],
  "bytecode": "0x608060405234801561001057600080fd5b50610873806100206000396000f300608060405260043610610057576000357c0100000000000000000000000000000000000000000000000000000000900463ffffffff1680630849cc991461005c57806392da515414610087578063bb99e5b814610271575b600080fd5b34801561006857600080fd5b506100716103ac565b6040518082815260200191505060405180910390f35b34801561009357600080fd5b506100b2600480360381019080803590602001909291905050506103d1565b6040518080602001806020018060200180602001858103855289818151815260200191508051906020019080838360005b838110156100fe5780820151818401526020810190506100e3565b50505050905090810190601f16801561012b5780820380516001836020036101000a031916815260200191505b50858103845288818151815260200191508051906020019080838360005b83811015610164578082015181840152602081019050610149565b50505050905090810190601f1680156101915780820380516001836020036101000a031916815260200191505b50858103835287818151815260200191508051906020019080838360005b838110156101ca5780820151818401526020810190506101af565b50505050905090810190601f1680156101f75780820380516001836020036101000a031916815260200191505b50858103825286818151815260200191508051906020019080838360005b83811015610230578082015181840152602081019050610215565b50505050905090810190601f16801561025d5780820380516001836020036101000a031916815260200191505b509850505050505050505060405180910390f35b34801561027d57600080fd5b506103aa600480360381019080803590602001908201803590602001908080601f0160208091040260200160405190810160405280939291908181526020018383808284378201915050505050509192919290803590602001908201803590602001908080601f0160208091040260200160405190810160405280939291908181526020018383808284378201915050505050509192919290803590602001908201803590602001908080601f0160208091040260200160405190810160405280939291908181526020018383808284378201915050505050509192919290803590602001908201803590602001908080601f01602080910402602001604051908101604052809392919081815260200183838082843782019150505050505091929192905050506106d6565b005b6000806000805490501415156103c95760008054905090506103ce565b600090505b90565b6060806060806000858154811015156103e657fe5b906000526020600020906004020160000160008681548110151561040657fe5b906000526020600020906004020160010160008781548110151561042657fe5b906000526020600020906004020160020160008881548110151561044657fe5b9060005260206000209060040201600301838054600181600116156101000203166002900480601f0160208091040260200160405190810160405280929190818152602001828054600181600116156101000203166002900480156104ec5780601f106104c1576101008083540402835291602001916104ec565b820191906000526020600020905b8154815290600101906020018083116104cf57829003601f168201915b50505050509350828054600181600116156101000203166002900480601f0160208091040260200160405190810160405280929190818152602001828054600181600116156101000203166002900480156105885780601f1061055d57610100808354040283529160200191610588565b820191906000526020600020905b81548152906001019060200180831161056b57829003601f168201915b50505050509250818054600181600116156101000203166002900480601f0160208091040260200160405190810160405280929190818152602001828054600181600116156101000203166002900480156106245780601f106105f957610100808354040283529160200191610624565b820191906000526020600020905b81548152906001019060200180831161060757829003601f168201915b50505050509150808054600181600116156101000203166002900480601f0160208091040260200160405190810160405280929190818152602001828054600181600116156101000203166002900480156106c05780601f10610695576101008083540402835291602001916106c0565b820191906000526020600020905b8154815290600101906020018083116106a357829003601f168201915b5050505050905093509350935093509193509193565b6000608060405190810160405280868152602001858152602001848152602001838152509080600181540180825580915050906001820390600052602060002090600402016000909192909190915060008201518160000190805190602001906107419291906107a2565b50602082015181600101908051906020019061075e9291906107a2565b50604082015181600201908051906020019061077b9291906107a2565b5060608201518160030190805190602001906107989291906107a2565b5050505050505050565b828054600181600116156101000203166002900490600052602060002090601f016020900481019282601f106107e357805160ff1916838001178555610811565b82800160010185558215610811579182015b828111156108105782518255916020019190600101906107f5565b5b50905061081e9190610822565b5090565b61084491905b80821115610840576000816000905550600101610828565b5090565b905600a165627a7a72305820ee628eae482c666cb33a68c1556f56d5a054d7657c2ba116ab9d90e10c97d1c30029",
  "source": "pragma solidity >=0.4.22 <0.8.0;\n\ncontract StoreData {\n\n  // structure to store metadata of CTI-Reports\n  struct Object {\n    string id;\n    string created;\n    string modified;\n    string description;\n  }\n\n  // struct array\n  Object[] objects;\n\n  // store new values in struct array 'objects'\n  function setObjects(string memory _id, string memory _created, string memory _modified, string memory _description) public {\n    objects.push(Object( _id, _created, _modified, _description));\n  }\n\n  // return length of struct array 'objects'\n  function getArrayLength() public view returns(uint) {\n    if(objects.length != 0) {\n      return objects.length;\n    }\n    else {\n      return 0;\n    }\n  }\n\n  // return values of one item in 'objects' (spezified by the index)\n  function getObjects(uint index) public view returns(string, string, string, string) {\n    return (objects[index].id, objects[index].created, objects[index].modified, objects[index].description);\n  }\n\n  /*\n\n  * onchain search\n  * bad performance\n  * better to use offchain search\n\n  function _toLower(string str) internal returns (string) {\n  \tbytes memory bStr = bytes(str);\n  \tbytes memory bLower = new bytes(bStr.length);\n  \tfor (uint i = 0; i < bStr.length; i++) {\n  \t\t// Uppercase character...\n  \t\tif ((bStr[i] >= 65) && (bStr[i] <= 90)) {\n  \t\t\t// So we add 32 to make it lowercase\n  \t\t\tbLower[i] = bytes1(int(bStr[i]) + 32);\n  \t\t} else {\n  \t\t\tbLower[i] = bStr[i];\n  \t\t}\n  \t}\n  \treturn string(bLower);\n\t}\n\n  function contains (string memory pattern, string memory _text) public constant returns(bool){\n    bytes memory patternBytes = bytes (pattern);\n    string memory text = _toLower(_text);\n    bytes memory textBytes = bytes (text);\n\n\n    for (uint i = 0; i < textBytes.length - patternBytes.length + 1; i++) {\n      bool success = true;\n      for (uint j = 0; j < patternBytes.length; j++) {\n        if (textBytes [i + j] != patternBytes [j]) {\n          success = false;\n        }\n      }\n      if(success) {\n        return true;\n      }\n    }\n    return false;\n  }\n\n\n  // function to search for a specific key words within the description\n  function searchObject(string keyWord) public constant returns(string, string, string, string) {\n    for(uint index=0; index < objects.length; index++) {\n      if(contains(keyWord, objects[index].description)) {\n        return (objects[index].id, objects[index].created, objects[index].modified, objects[index].description);\n      }\n    }\n  }\n\n  */\n\n\n}\n",
  "sourcePath": "/Users/josefbreitenfellner/contract/contracts/StoreData.sol",
  "compiler": {
    "name": "solc",
    "version": "0.4.25+commit.59dbf8f1.Emscripten.clang"
  },
  "schemaVersion": "3.3.1",
  "updatedAt": "2021-02-08T13:09:32.175Z",
  "networkType": "ethereum",
  "devdoc": {
    "methods": {}
  },
  "userdoc": {
    "methods": {}
  }
}